{
  "_format": "hh-sol-artifact-1",
  "contractName": "AddressBook",
  "sourceName": "contracts/AddressBook.sol",
  "abi": [
    {
      "inputs": [
        {
          "internalType": "address",
          "name": "_addr",
          "type": "address"
        },
        {
          "internalType": "string",
          "name": "_alias",
          "type": "string"
        }
      ],
      "name": "addAddress",
      "outputs": [],
      "stateMutability": "nonpayable",
      "type": "function"
    },
    {
      "inputs": [
        {
          "internalType": "address",
          "name": "_addr",
          "type": "address"
        }
      ],
      "name": "getAddressList",
      "outputs": [
        {
          "internalType": "address[]",
          "name": "",
          "type": "address[]"
        }
      ],
      "stateMutability": "view",
      "type": "function"
    },
    {
      "inputs": [
        {
          "internalType": "address",
          "name": "_ownerAddress",
          "type": "address"
        },
        {
          "internalType": "address",
          "name": "_addr",
          "type": "address"
        }
      ],
      "name": "getAlias",
      "outputs": [
        {
          "internalType": "string",
          "name": "",
          "type": "string"
        }
      ],
      "stateMutability": "view",
      "type": "function"
    },
    {
      "inputs": [
        {
          "internalType": "address",
          "name": "_addr",
          "type": "address"
        }
      ],
      "name": "removeAddress",
      "outputs": [],
      "stateMutability": "nonpayable",
      "type": "function"
    }
  ],
  "bytecode": "0x608060405234801561001057600080fd5b506111fa806100206000396000f3fe608060405234801561001057600080fd5b506004361061004c5760003560e01c8063221a2fdf146100515780634ba79dfe14610081578063aeb9a5251461009d578063d033c456146100cd575b600080fd5b61006b60048036038101906100669190610c01565b6100e9565b6040516100789190610e9f565b60405180910390f35b61009b60048036038101906100969190610bd8565b6101f8565b005b6100b760048036038101906100b29190610bd8565b610681565b6040516100c49190610e7d565b60405180910390f35b6100e760048036038101906100e29190610c3d565b61074d565b005b6060600160008473ffffffffffffffffffffffffffffffffffffffff1673ffffffffffffffffffffffffffffffffffffffff16815260200190815260200160002060008373ffffffffffffffffffffffffffffffffffffffff1673ffffffffffffffffffffffffffffffffffffffff168152602001908152602001600020805461017290611094565b80601f016020809104026020016040519081016040528092919081815260200182805461019e90611094565b80156101eb5780601f106101c0576101008083540402835291602001916101eb565b820191906000526020600020905b8154815290600101906020018083116101ce57829003601f168201915b5050505050905092915050565b60008060003373ffffffffffffffffffffffffffffffffffffffff1673ffffffffffffffffffffffffffffffffffffffff16815260200190815260200160002080549050905060008111610281576040517f08c379a000000000000000000000000000000000000000000000000000000000815260040161027890610ec1565b60405180910390fd5b60005b8181101561067c576000803373ffffffffffffffffffffffffffffffffffffffff1673ffffffffffffffffffffffffffffffffffffffff1681526020019081526020016000208181548110610302577f4e487b7100000000000000000000000000000000000000000000000000000000600052603260045260246000fd5b9060005260206000200160009054906101000a900473ffffffffffffffffffffffffffffffffffffffff1673ffffffffffffffffffffffffffffffffffffffff168373ffffffffffffffffffffffffffffffffffffffff1614156106695760016000803373ffffffffffffffffffffffffffffffffffffffff1673ffffffffffffffffffffffffffffffffffffffff168152602001908152602001600020805490501180156103bc57506001826103b99190610fe2565b81105b1561052d576000803373ffffffffffffffffffffffffffffffffffffffff1673ffffffffffffffffffffffffffffffffffffffff16815260200190815260200160002060018361040c9190610fe2565b81548110610443577f4e487b7100000000000000000000000000000000000000000000000000000000600052603260045260246000fd5b9060005260206000200160009054906101000a900473ffffffffffffffffffffffffffffffffffffffff166000803373ffffffffffffffffffffffffffffffffffffffff1673ffffffffffffffffffffffffffffffffffffffff16815260200190815260200160002082815481106104e4577f4e487b7100000000000000000000000000000000000000000000000000000000600052603260045260246000fd5b9060005260206000200160006101000a81548173ffffffffffffffffffffffffffffffffffffffff021916908373ffffffffffffffffffffffffffffffffffffffff1602179055505b6000803373ffffffffffffffffffffffffffffffffffffffff1673ffffffffffffffffffffffffffffffffffffffff1681526020019081526020016000206001836105789190610fe2565b815481106105af577f4e487b7100000000000000000000000000000000000000000000000000000000600052603260045260246000fd5b9060005260206000200160006101000a81549073ffffffffffffffffffffffffffffffffffffffff0219169055600160003373ffffffffffffffffffffffffffffffffffffffff1673ffffffffffffffffffffffffffffffffffffffff16815260200190815260200160002060008473ffffffffffffffffffffffffffffffffffffffff1673ffffffffffffffffffffffffffffffffffffffff16815260200190815260200160002060006106649190610a78565b61067c565b8080610674906110c6565b915050610284565b505050565b60606000808373ffffffffffffffffffffffffffffffffffffffff1673ffffffffffffffffffffffffffffffffffffffff16815260200190815260200160002080548060200260200160405190810160405280929190818152602001828054801561074157602002820191906000526020600020905b8160009054906101000a900473ffffffffffffffffffffffffffffffffffffffff1673ffffffffffffffffffffffffffffffffffffffff16815260200190600101908083116106f7575b50505050509050919050565b61076560405180602001604052806000815250610a48565b61076e82610a48565b14156107af576040517f08c379a00000000000000000000000000000000000000000000000000000000081526004016107a690610ee1565b60405180910390fd5b6107c760405180602001604052806000815250610a48565b6108d4600160003373ffffffffffffffffffffffffffffffffffffffff1673ffffffffffffffffffffffffffffffffffffffff16815260200190815260200160002060008573ffffffffffffffffffffffffffffffffffffffff1673ffffffffffffffffffffffffffffffffffffffff168152602001908152602001600020805461085190611094565b80601f016020809104026020016040519081016040528092919081815260200182805461087d90611094565b80156108ca5780601f1061089f576101008083540402835291602001916108ca565b820191906000526020600020905b8154815290600101906020018083116108ad57829003601f168201915b5050505050610a48565b14610914576040517f08c379a000000000000000000000000000000000000000000000000000000000815260040161090b90610f01565b60405180910390fd5b6000803373ffffffffffffffffffffffffffffffffffffffff1673ffffffffffffffffffffffffffffffffffffffff168152602001908152602001600020829080600181540180825580915050600190039060005260206000200160009091909190916101000a81548173ffffffffffffffffffffffffffffffffffffffff021916908373ffffffffffffffffffffffffffffffffffffffff16021790555080600160003373ffffffffffffffffffffffffffffffffffffffff1673ffffffffffffffffffffffffffffffffffffffff16815260200190815260200160002060008473ffffffffffffffffffffffffffffffffffffffff1673ffffffffffffffffffffffffffffffffffffffff1681526020019081526020016000209080519060200190610a43929190610ab8565b505050565b600081604051602001610a5b9190610e66565b604051602081830303815290604052805190602001209050919050565b508054610a8490611094565b6000825580601f10610a965750610ab5565b601f016020900490600052602060002090810190610ab49190610b3e565b5b50565b828054610ac490611094565b90600052602060002090601f016020900481019282610ae65760008555610b2d565b82601f10610aff57805160ff1916838001178555610b2d565b82800160010185558215610b2d579182015b82811115610b2c578251825591602001919060010190610b11565b5b509050610b3a9190610b3e565b5090565b5b80821115610b57576000816000905550600101610b3f565b5090565b6000610b6e610b6984610f52565b610f21565b905082815260208101848484011115610b8657600080fd5b610b91848285611052565b509392505050565b600081359050610ba8816111ad565b92915050565b600082601f830112610bbf57600080fd5b8135610bcf848260208601610b5b565b91505092915050565b600060208284031215610bea57600080fd5b6000610bf884828501610b99565b91505092915050565b60008060408385031215610c1457600080fd5b6000610c2285828601610b99565b9250506020610c3385828601610b99565b9150509250929050565b60008060408385031215610c5057600080fd5b6000610c5e85828601610b99565b925050602083013567ffffffffffffffff811115610c7b57600080fd5b610c8785828601610bae565b9150509250929050565b6000610c9d8383610ca9565b60208301905092915050565b610cb281611016565b82525050565b6000610cc382610f92565b610ccd8185610fb5565b9350610cd883610f82565b8060005b83811015610d09578151610cf08882610c91565b9750610cfb83610fa8565b925050600181019050610cdc565b5085935050505092915050565b6000610d2182610f9d565b610d2b8185610fc6565b9350610d3b818560208601611061565b610d448161119c565b840191505092915050565b6000610d5a82610f9d565b610d648185610fd7565b9350610d74818560208601611061565b80840191505092915050565b6000610d8d602683610fc6565b91507f54686973206163636f756e7420646f6573206e6f74206861766520616e79206160008301527f64647265737300000000000000000000000000000000000000000000000000006020830152604082019050919050565b6000610df3601583610fc6565b91507f416c6961732063616e6e6f7420626520626c616e6b00000000000000000000006000830152602082019050919050565b6000610e33601a83610fc6565b91507f4164647265737320616c726561647920726567697374657265640000000000006000830152602082019050919050565b6000610e728284610d4f565b915081905092915050565b60006020820190508181036000830152610e978184610cb8565b905092915050565b60006020820190508181036000830152610eb98184610d16565b905092915050565b60006020820190508181036000830152610eda81610d80565b9050919050565b60006020820190508181036000830152610efa81610de6565b9050919050565b60006020820190508181036000830152610f1a81610e26565b9050919050565b6000604051905081810181811067ffffffffffffffff82111715610f4857610f4761116d565b5b8060405250919050565b600067ffffffffffffffff821115610f6d57610f6c61116d565b5b601f19601f8301169050602081019050919050565b6000819050602082019050919050565b600081519050919050565b600081519050919050565b6000602082019050919050565b600082825260208201905092915050565b600082825260208201905092915050565b600081905092915050565b6000610fed82611048565b9150610ff883611048565b92508282101561100b5761100a61110f565b5b828203905092915050565b600061102182611028565b9050919050565b600073ffffffffffffffffffffffffffffffffffffffff82169050919050565b6000819050919050565b82818337600083830152505050565b60005b8381101561107f578082015181840152602081019050611064565b8381111561108e576000848401525b50505050565b600060028204905060018216806110ac57607f821691505b602082108114156110c0576110bf61113e565b5b50919050565b60006110d182611048565b91507fffffffffffffffffffffffffffffffffffffffffffffffffffffffffffffffff8214156111045761110361110f565b5b600182019050919050565b7f4e487b7100000000000000000000000000000000000000000000000000000000600052601160045260246000fd5b7f4e487b7100000000000000000000000000000000000000000000000000000000600052602260045260246000fd5b7f4e487b7100000000000000000000000000000000000000000000000000000000600052604160045260246000fd5b6000601f19601f8301169050919050565b6111b681611016565b81146111c157600080fd5b5056fea2646970667358221220d2f283cc79aa4893c681b26766015aa4b1b7c994f2b6249ef9b6bd762a0411e364736f6c63430008000033",
  "linkReferences": {},
  "deployedLinkReferences": {}
}