{
  "address": "0xF2787031ED4dc1f331E5BB8c5883F2F0F7d52a83",
  "abi": [
    {
      "anonymous": false,
      "inputs": [
        {
          "indexed": false,
          "internalType": "string",
          "name": "_alias",
          "type": "string"
        },
        {
          "indexed": true,
          "internalType": "address",
          "name": "_addr",
          "type": "address"
        }
      ],
      "name": "addAddressEvent",
      "type": "event"
    },
    {
      "anonymous": false,
      "inputs": [
        {
          "indexed": true,
          "internalType": "address",
          "name": "_addr",
          "type": "address"
        }
      ],
      "name": "removeAddressEvent",
      "type": "event"
    },
    {
      "inputs": [
        {
          "internalType": "address",
          "name": "_addr",
          "type": "address"
        },
        {
          "internalType": "string",
          "name": "_alias",
          "type": "string"
        }
      ],
      "name": "addAddress",
      "outputs": [],
      "stateMutability": "nonpayable",
      "type": "function"
    },
    {
      "inputs": [
        {
          "internalType": "address",
          "name": "_addr",
          "type": "address"
        }
      ],
      "name": "getAddressList",
      "outputs": [
        {
          "internalType": "address[]",
          "name": "",
          "type": "address[]"
        }
      ],
      "stateMutability": "view",
      "type": "function"
    },
    {
      "inputs": [
        {
          "internalType": "address",
          "name": "_ownerAddress",
          "type": "address"
        },
        {
          "internalType": "address",
          "name": "_addr",
          "type": "address"
        }
      ],
      "name": "getAlias",
      "outputs": [
        {
          "internalType": "string",
          "name": "",
          "type": "string"
        }
      ],
      "stateMutability": "view",
      "type": "function"
    },
    {
      "inputs": [
        {
          "internalType": "address",
          "name": "_addr",
          "type": "address"
        }
      ],
      "name": "removeAddress",
      "outputs": [],
      "stateMutability": "nonpayable",
      "type": "function"
    }
  ],
  "transactionHash": "0xd855db0387c5e17604deceaa3fb2889028afdcbb80d71874137576b4610204aa",
  "args": [],
  "solcInputHash": "00982566f8900c97fa385e4f1ecdddb5",
  "bytecode": "0x608060405234801561001057600080fd5b5061128b806100206000396000f3fe608060405234801561001057600080fd5b506004361061004c5760003560e01c8063221a2fdf146100515780634ba79dfe14610081578063aeb9a5251461009d578063d033c456146100cd575b600080fd5b61006b60048036038101906100669190610c92565b6100e9565b6040516100789190610f30565b60405180910390f35b61009b60048036038101906100969190610c69565b6101f8565b005b6100b760048036038101906100b29190610c69565b6106c4565b6040516100c49190610f0e565b60405180910390f35b6100e760048036038101906100e29190610cce565b610790565b005b6060600160008473ffffffffffffffffffffffffffffffffffffffff1673ffffffffffffffffffffffffffffffffffffffff16815260200190815260200160002060008373ffffffffffffffffffffffffffffffffffffffff1673ffffffffffffffffffffffffffffffffffffffff168152602001908152602001600020805461017290611125565b80601f016020809104026020016040519081016040528092919081815260200182805461019e90611125565b80156101eb5780601f106101c0576101008083540402835291602001916101eb565b820191906000526020600020905b8154815290600101906020018083116101ce57829003601f168201915b5050505050905092915050565b60008060003373ffffffffffffffffffffffffffffffffffffffff1673ffffffffffffffffffffffffffffffffffffffff16815260200190815260200160002080549050905060008111610281576040517f08c379a000000000000000000000000000000000000000000000000000000000815260040161027890610f52565b60405180910390fd5b60005b8181101561067c576000803373ffffffffffffffffffffffffffffffffffffffff1673ffffffffffffffffffffffffffffffffffffffff1681526020019081526020016000208181548110610302577f4e487b7100000000000000000000000000000000000000000000000000000000600052603260045260246000fd5b9060005260206000200160009054906101000a900473ffffffffffffffffffffffffffffffffffffffff1673ffffffffffffffffffffffffffffffffffffffff168373ffffffffffffffffffffffffffffffffffffffff1614156106695760016000803373ffffffffffffffffffffffffffffffffffffffff1673ffffffffffffffffffffffffffffffffffffffff168152602001908152602001600020805490501180156103bc57506001826103b99190611073565b81105b1561052d576000803373ffffffffffffffffffffffffffffffffffffffff1673ffffffffffffffffffffffffffffffffffffffff16815260200190815260200160002060018361040c9190611073565b81548110610443577f4e487b7100000000000000000000000000000000000000000000000000000000600052603260045260246000fd5b9060005260206000200160009054906101000a900473ffffffffffffffffffffffffffffffffffffffff166000803373ffffffffffffffffffffffffffffffffffffffff1673ffffffffffffffffffffffffffffffffffffffff16815260200190815260200160002082815481106104e4577f4e487b7100000000000000000000000000000000000000000000000000000000600052603260045260246000fd5b9060005260206000200160006101000a81548173ffffffffffffffffffffffffffffffffffffffff021916908373ffffffffffffffffffffffffffffffffffffffff1602179055505b6000803373ffffffffffffffffffffffffffffffffffffffff1673ffffffffffffffffffffffffffffffffffffffff1681526020019081526020016000206001836105789190611073565b815481106105af577f4e487b7100000000000000000000000000000000000000000000000000000000600052603260045260246000fd5b9060005260206000200160006101000a81549073ffffffffffffffffffffffffffffffffffffffff0219169055600160003373ffffffffffffffffffffffffffffffffffffffff1673ffffffffffffffffffffffffffffffffffffffff16815260200190815260200160002060008473ffffffffffffffffffffffffffffffffffffffff1673ffffffffffffffffffffffffffffffffffffffff16815260200190815260200160002060006106649190610b09565b61067c565b808061067490611157565b915050610284565b508173ffffffffffffffffffffffffffffffffffffffff167ffeeea5a92e8f583c3a84cef36f8bcd6d85d413baf1cef527bdc77c2e9e79a5a960405160405180910390a25050565b60606000808373ffffffffffffffffffffffffffffffffffffffff1673ffffffffffffffffffffffffffffffffffffffff16815260200190815260200160002080548060200260200160405190810160405280929190818152602001828054801561078457602002820191906000526020600020905b8160009054906101000a900473ffffffffffffffffffffffffffffffffffffffff1673ffffffffffffffffffffffffffffffffffffffff168152602001906001019080831161073a575b50505050509050919050565b6107a860405180602001604052806000815250610ad9565b6107b182610ad9565b14156107f2576040517f08c379a00000000000000000000000000000000000000000000000000000000081526004016107e990610f72565b60405180910390fd5b61080a60405180602001604052806000815250610ad9565b610917600160003373ffffffffffffffffffffffffffffffffffffffff1673ffffffffffffffffffffffffffffffffffffffff16815260200190815260200160002060008573ffffffffffffffffffffffffffffffffffffffff1673ffffffffffffffffffffffffffffffffffffffff168152602001908152602001600020805461089490611125565b80601f01602080910402602001604051908101604052809291908181526020018280546108c090611125565b801561090d5780601f106108e25761010080835404028352916020019161090d565b820191906000526020600020905b8154815290600101906020018083116108f057829003601f168201915b5050505050610ad9565b14610957576040517f08c379a000000000000000000000000000000000000000000000000000000000815260040161094e90610f92565b60405180910390fd5b6000803373ffffffffffffffffffffffffffffffffffffffff1673ffffffffffffffffffffffffffffffffffffffff168152602001908152602001600020829080600181540180825580915050600190039060005260206000200160009091909190916101000a81548173ffffffffffffffffffffffffffffffffffffffff021916908373ffffffffffffffffffffffffffffffffffffffff16021790555080600160003373ffffffffffffffffffffffffffffffffffffffff1673ffffffffffffffffffffffffffffffffffffffff16815260200190815260200160002060008473ffffffffffffffffffffffffffffffffffffffff1673ffffffffffffffffffffffffffffffffffffffff1681526020019081526020016000209080519060200190610a86929190610b49565b508173ffffffffffffffffffffffffffffffffffffffff167fb4a60df3f02648a655357ad24d30f91afeed13e46175202491a777673543d87482604051610acd9190610f30565b60405180910390a25050565b600081604051602001610aec9190610ef7565b604051602081830303815290604052805190602001209050919050565b508054610b1590611125565b6000825580601f10610b275750610b46565b601f016020900490600052602060002090810190610b459190610bcf565b5b50565b828054610b5590611125565b90600052602060002090601f016020900481019282610b775760008555610bbe565b82601f10610b9057805160ff1916838001178555610bbe565b82800160010185558215610bbe579182015b82811115610bbd578251825591602001919060010190610ba2565b5b509050610bcb9190610bcf565b5090565b5b80821115610be8576000816000905550600101610bd0565b5090565b6000610bff610bfa84610fe3565b610fb2565b905082815260208101848484011115610c1757600080fd5b610c228482856110e3565b509392505050565b600081359050610c398161123e565b92915050565b600082601f830112610c5057600080fd5b8135610c60848260208601610bec565b91505092915050565b600060208284031215610c7b57600080fd5b6000610c8984828501610c2a565b91505092915050565b60008060408385031215610ca557600080fd5b6000610cb385828601610c2a565b9250506020610cc485828601610c2a565b9150509250929050565b60008060408385031215610ce157600080fd5b6000610cef85828601610c2a565b925050602083013567ffffffffffffffff811115610d0c57600080fd5b610d1885828601610c3f565b9150509250929050565b6000610d2e8383610d3a565b60208301905092915050565b610d43816110a7565b82525050565b6000610d5482611023565b610d5e8185611046565b9350610d6983611013565b8060005b83811015610d9a578151610d818882610d22565b9750610d8c83611039565b925050600181019050610d6d565b5085935050505092915050565b6000610db28261102e565b610dbc8185611057565b9350610dcc8185602086016110f2565b610dd58161122d565b840191505092915050565b6000610deb8261102e565b610df58185611068565b9350610e058185602086016110f2565b80840191505092915050565b6000610e1e602683611057565b91507f54686973206163636f756e7420646f6573206e6f74206861766520616e79206160008301527f64647265737300000000000000000000000000000000000000000000000000006020830152604082019050919050565b6000610e84601583611057565b91507f416c6961732063616e6e6f7420626520626c616e6b00000000000000000000006000830152602082019050919050565b6000610ec4601a83611057565b91507f4164647265737320616c726561647920726567697374657265640000000000006000830152602082019050919050565b6000610f038284610de0565b915081905092915050565b60006020820190508181036000830152610f288184610d49565b905092915050565b60006020820190508181036000830152610f4a8184610da7565b905092915050565b60006020820190508181036000830152610f6b81610e11565b9050919050565b60006020820190508181036000830152610f8b81610e77565b9050919050565b60006020820190508181036000830152610fab81610eb7565b9050919050565b6000604051905081810181811067ffffffffffffffff82111715610fd957610fd86111fe565b5b8060405250919050565b600067ffffffffffffffff821115610ffe57610ffd6111fe565b5b601f19601f8301169050602081019050919050565b6000819050602082019050919050565b600081519050919050565b600081519050919050565b6000602082019050919050565b600082825260208201905092915050565b600082825260208201905092915050565b600081905092915050565b600061107e826110d9565b9150611089836110d9565b92508282101561109c5761109b6111a0565b5b828203905092915050565b60006110b2826110b9565b9050919050565b600073ffffffffffffffffffffffffffffffffffffffff82169050919050565b6000819050919050565b82818337600083830152505050565b60005b838110156111105780820151818401526020810190506110f5565b8381111561111f576000848401525b50505050565b6000600282049050600182168061113d57607f821691505b60208210811415611151576111506111cf565b5b50919050565b6000611162826110d9565b91507fffffffffffffffffffffffffffffffffffffffffffffffffffffffffffffffff821415611195576111946111a0565b5b600182019050919050565b7f4e487b7100000000000000000000000000000000000000000000000000000000600052601160045260246000fd5b7f4e487b7100000000000000000000000000000000000000000000000000000000600052602260045260246000fd5b7f4e487b7100000000000000000000000000000000000000000000000000000000600052604160045260246000fd5b6000601f19601f8301169050919050565b611247816110a7565b811461125257600080fd5b5056fea2646970667358221220230de983885c3285b8df165c8dc47eccac4abb49fa595c8640e1cd553350e9e364736f6c63430008000033",
  "devdoc": {
    "kind": "dev",
    "methods": {},
    "version": 1
  },
  "userdoc": {
    "kind": "user",
    "methods": {},
    "version": 1
  },
  "storageLayout": {
    "storage": [
      {
        "astId": 6,
        "contract": "contracts/AddressBook.sol:AddressBook",
        "label": "addresses",
        "offset": 0,
        "slot": "0",
        "type": "t_mapping(t_address,t_array(t_address)dyn_storage)"
      },
      {
        "astId": 12,
        "contract": "contracts/AddressBook.sol:AddressBook",
        "label": "aliases",
        "offset": 0,
        "slot": "1",
        "type": "t_mapping(t_address,t_mapping(t_address,t_string_storage))"
      }
    ],
    "types": {
      "t_address": {
        "encoding": "inplace",
        "label": "address",
        "numberOfBytes": "20"
      },
      "t_array(t_address)dyn_storage": {
        "base": "t_address",
        "encoding": "dynamic_array",
        "label": "address[]",
        "numberOfBytes": "32"
      },
      "t_mapping(t_address,t_array(t_address)dyn_storage)": {
        "encoding": "mapping",
        "key": "t_address",
        "label": "mapping(address => address[])",
        "numberOfBytes": "32",
        "value": "t_array(t_address)dyn_storage"
      },
      "t_mapping(t_address,t_mapping(t_address,t_string_storage))": {
        "encoding": "mapping",
        "key": "t_address",
        "label": "mapping(address => mapping(address => string))",
        "numberOfBytes": "32",
        "value": "t_mapping(t_address,t_string_storage)"
      },
      "t_mapping(t_address,t_string_storage)": {
        "encoding": "mapping",
        "key": "t_address",
        "label": "mapping(address => string)",
        "numberOfBytes": "32",
        "value": "t_string_storage"
      },
      "t_string_storage": {
        "encoding": "bytes",
        "label": "string",
        "numberOfBytes": "32"
      }
    }
  }
}